:100000000C942A000C94CA090C9453090C94BA0855
:100010000C9475080C9447000C9447000C9447000E
:100020000C9447000C9447000C948C070C944700E8
:100030000C9447000C9447000C9447000C94470024
:100040000C948B0F0C9447000C9447000C944700C1
:100050000C94470011241FBECFE5D8E0DEBFCDBF12
:1000600011E0A0E6B0E0EEE9F5E402C005900D92E3
:10007000AA35B107D9F711E0AAE5B1E001C01D9298
:10008000A038B107E1F70E940A210C94CD220C940C
:100090000000EF92FF920F931F937B018C0120E0F1
:1000A00030E040E05FE40E94490388238CF0C801FF
:1000B000B70120E030E040E05FE40E94C1010E940F
:1000C000A9039B01AC01205030404040504806C07D
:1000D000C801B7010E94A9039B01AC01B901CA0183
:1000E0001F910F91FF90EF900895A0E0B0E0EBE733
:1000F000F0E00C949622DC012B01FA019C919230E5
:1001000008F439C1EB018881823008F433C194309E
:1001100069F4843009F02FC111969C91119789815F
:10012000981709F428C1A1E1B1E025C1843009F490
:1001300021C18230A9F4923009F01DC19A01AD01AC
:1001400088E0EA010990AE01E90109929E0181501F
:10015000C1F7E201898111969C918923818308C1AD
:10016000923009F407C112962D903C901397EB0141
:100170008A819B811496AD90BD90CD90DC901797AD
:10018000EC80FD800E811F819101281B390BB90184
:1001900037FF04C066277727621B730B6032710537
:1001A0000CF061C0121613066CF537014801062EDB
:1001B00004C096948794779467940A94D2F721E0C8
:1001C00030E040E050E004C0220F331F441F551FB1
:1001D0006A95D2F721503040404050402E213F21B7
:1001E00040235123211531054105510521F021E01E
:1001F00030E040E050E079018A01E628F72808293C
:1002000019293CC0232BD1F1260E371E350146019A
:10021000062E04C096948794779467940A94D2F734
:1002200021E030E040E050E004C0220F331F441FC3
:10023000551F6A95D2F721503040404050402A2146
:100240003B214C215D21211531054105510521F04E
:1002500021E030E040E050E059016A01A628B728CB
:10026000C828D9280BC0821593052CF01C01AA249C
:10027000BB24650103C0EE24FF24870111969C91E5
:10028000D20111968C91981709F445C0992339F041
:10029000A80197012A193B094C095D0906C0A6016E
:1002A00095012E193F09400B510B57FD08C01182D3
:1002B0003382228224833583468357831DC081E0A5
:1002C00081833382228288279927DC01821B930B4A
:1002D000A40BB50B84839583A683B7830DC0220F2F
:1002E000331F441F551F24833583468357838281E0
:1002F000938101979383828324813581468157813D
:10030000DA01C9010197A109B1098F5F9F4FAF4F72
:10031000BF4328F30BC0918333822282EA0CFB1C7B
:100320000C1D1D1DE482F5820683178383E0808304
:10033000248135814681578157FF1AC0C901AA27F8
:1003400097FDA095BA2F81709070A070B0705695EF
:10035000479537952795822B932BA42BB52B848318
:100360009583A683B7838281938101969383828349
:10037000DF0101C0D201CD01CDB7DEB7E2E10C94BF
:10038000B222A0E2B0E0E7ECF1E00C94A222698393
:100390007A838B839C832D833E834F835887E9E048
:1003A000EE2EF12CEC0EFD1ECE010196B7010E943F
:1003B000D2048E010F5E1F4FCE010596B8010E9438
:1003C000D2048A8991E089278A8BC701B801AE01DE
:1003D000475E5F4F0E9475000E94FD03A096E6E015
:1003E0000C94BE22A0E2B0E0E8EFF1E00C94A2226F
:1003F00069837A838B839C832D833E834F835887C5
:10040000F9E0EF2EF12CEC0EFD1ECE010196B701A6
:100410000E94D2048E010F5E1F4FCE010596B801D7
:100420000E94D204C701B801AE01475E5F4F0E942F
:1004300075000E94FD03A096E6E00C94BE22A0E2A7
:10044000B0E0E5E2F2E00C94962269837A838B8334
:100450009C832D833E834F835887CE010196BE0136
:10046000675F7F4F0E94D204CE010596BE016F5E8A
:100470007F4F0E94D2049985923088F0898982301A
:10048000C8F0943019F4823051F404C0843029F457
:10049000923081F481E191E0C6C0923049F420E0CD
:1004A0009A858A89981321E02A87CE010996BBC0D4
:1004B000823049F420E09A858A89981321E02A8BBA
:1004C000CE014196B0C02D843E844F8458886D88FB
:1004D0007E888F88988CEE24FF248701AA24BB2471
:1004E000650140E050E060E070E0E0E0F0E0C10174
:1004F00081709070892BE9F0E60CF71C081D191D1E
:100500009A01AB012A0D3B1D4C1D5D1D80E090E062
:10051000A0E0B0E0E614F7040805190520F481E036
:1005200090E0A0E0B0E0BA01A901480F591F6A1F8E
:100530007B1FAA0CBB1CCC1CDD1C97FE08C081E0F5
:1005400090E0A0E0B0E0A82AB92ACA2ADB2A3196B6
:10055000E032F10549F0660C771C881C991C569412
:10056000479437942794C3CFFA85EA892B893C892D
:100570008B859C85280F391F2E5F3F4F17C0CA01FE
:1005800081709070892B61F016950795F794E79428
:1005900080E090E0A0E0B0E8E82AF92A0A2B1B2BC3
:1005A00076956795579547952F5F3F4F77FDE7CF36
:1005B0000CC0440F551F661F771F17FD4160EE0CDE
:1005C000FF1C001F111F21503040403090E05907A0
:1005D00090E0690790E4790760F32B8F3C8FDB0193
:1005E000CA018F779070A070B07080349105A1051A
:1005F000B10561F447FD0AC0E114F10401051105DC
:1006000029F0405C5F4F6F4F7F4F40781A8EFE1786
:1006100011F081E08A8F4D8F5E8F6F8F78A383E01A
:10062000898FCE0149960E94FD03A096E2E10C94C9
:10063000B222A8E1B0E0EFE1F3E00C94A2226983DA
:100640007A838B839C832D833E834F83588789E0F5
:10065000E82EF12CEC0EFD1ECE010196B7010E9492
:10066000D2048E010F5E1F4FCE010596B8010E9485
:10067000D2048985823040F08989823028F0C70110
:10068000B8010E944A0501C08FEF6896E6E00C941D
:10069000BE22A8E1B0E0EFE4F3E00C94A22269836B
:1006A0007A838B839C832D833E834F83588789E095
:1006B000E82EF12CEC0EFD1ECE010196B7010E9432
:1006C000D2048E010F5E1F4FCE010596B8010E9425
:1006D000D2048985823040F08989823028F0C701B0
:1006E000B8010E944A0501C08FEF6896E6E00C94BD
:1006F000BE22A8E1B0E0EFE7F3E00C94A222698308
:100700007A838B839C832D833E834F83588789E034
:10071000E82EF12CEC0EFD1ECE010196B7010E94D1
:10072000D2048E010F5E1F4FCE010596B8010E94C4
:10073000D2048985823040F08989823028F0C7014F
:10074000B8010E944A0501C081E06896E6E00C9479
:10075000BE22ACE0B0E0EFEAF3E00C94A62269839D
:100760007A838B839C83CE010196BE016B5F7F4FA2
:100770000E94D2048D81823061F1823050F1843048
:1007800021F48E81882351F12EC02F81388537FDC9
:1007900020C06E812F3131051CF06623F9F023C093
:1007A0008EE190E0821B930B29853A854B855C8511
:1007B00004C056954795379527958A95D2F76623B5
:1007C000B1F050954095309521953F4F4F4F5F4F79
:1007D0000EC020E030E040E050E009C02FEF3FEFD6
:1007E0004FEF5FE704C020E030E040E050E8B9019F
:1007F000CA012C96E2E00C94C222DF92EF92FF92A3
:100800000F931F93FC01E480F58006811781D1804E
:100810008081823048F480E090E0A0E1B0E0E82AF6
:10082000F92A0A2B1B2BA5C0843009F49FC0823003
:1008300021F4EE24FF24870105C0E114F104010531
:10084000110519F4E0E0F0E096C0628173819FEF3A
:10085000623879070CF05BC022E83FEF261B370BAC
:100860002A3131052CF020E030E040E050E02AC091
:10087000B801A701022E04C0769567955795479554
:100880000A94D2F781E090E0A0E0B0E004C0880FC5
:10089000991FAA1FBB1F2A95D2F70197A109B10979
:1008A0008E219F21A023B1230097A105B10521F03E
:1008B00081E090E0A0E0B0E09A01AB01282B392B59
:1008C0004A2B5B2BDA01C9018F779070A070B07052
:1008D00080349105A105B10539F427FF09C0205CDA
:1008E0003F4F4F4F5F4F04C0215C3F4F4F4F5F4F13
:1008F000E0E0F0E02030A0E03A07A0E04A07A0E402
:100900005A0710F0E1E0F0E079018A0127C0603871
:10091000710564F5FB01E158FF4FD801C7018F77DE
:100920009070A070B07080349105A105B10539F4C4
:10093000E7FE0DC080E490E0A0E0B0E004C08FE3EB
:1009400090E0A0E0B0E0E80EF91E0A1F1B1F17FFA1
:1009500005C016950795F794E794319687E01695AC
:100960000795F794E7948A95D1F705C0EE24FF2404
:100970008701EFEFF0E06E2F679566276795902F60
:100980009F77D794DD24D7948E2F8695492F462BB9
:10099000582F5D29B701CA011F910F91FF90EF9069
:1009A000DF900895FC01DB01408151812281622F9B
:1009B0006F7770E0221F2227221F9381892F880FD3
:1009C000822B282F30E0991F9927991F11969C930D
:1009D000119721153105A9F54115510561057105DD
:1009E00011F482E037C082E89FEF13969C938E93B8
:1009F00012979A01AB0167E0220F331F441F551F66
:100A00006A95D1F783E08C930DC0220F331F441FEA
:100A1000551F12968D919C911397019713969C9355
:100A20008E931297203080E0380780E0480780E4FA
:100A3000580758F314962D933D934D935C93179755
:100A400008952F3F310579F4411551056105710570
:100A500019F484E08C93089564FF03C081E08C93C3
:100A600012C01C9210C02F57304013963C932E9307
:100A7000129783E08C9387E0440F551F661F771F02
:100A80008A95D1F7706414964D935D936D937C9322
:100A9000179708951F93DC01FB019C91923008F495
:100AA00047C08081823008F443C0943051F41196DD
:100AB0001C91843099F58181682F70E0611B710968
:100AC0003FC0843021F0923031F48230B9F181811D
:100AD000882389F12DC011961C9111978230F1F075
:100AE00081811817D9F412962D913C911397828128
:100AF00093818217930794F028173907BCF0149656
:100B00008D919D910D90BC91A02D248135814681C0
:100B10005781281739074A075B0718F4112341F05A
:100B20000AC082179307A407B50740F4112319F0F0
:100B300061E070E005C06FEF7FEF02C060E070E041
:100B4000CB011F910895DF93CF93CDB7DEB78EE72A
:100B500096E00E945D070E94CE070E942507CF9174
:100B6000DF910895DF93CF93CDB7DEB728970FB607
:100B7000F894DEBF0FBECDBF8A837C836B835E8318
:100B80004D8338872F8319828A81282F30E0C9014D
:100B9000880F991F880F991F880F991F821B930B2D
:100BA000FC01E45AFE4F80819181009709F04AC010
:100BB0008A81282F30E0C901880F991F880F991F5B
:100BC000880F991F821B930BFC01E65AFE4F8B8105
:100BD0009C81918380838A81282F30E0C901880F0E
:100BE000991F880F991F880F991F821B930BFC0177
:100BF000E45AFE4F8D819E81918380838A81282FC4
:100C000030E0C901880F991F880F991F880F991F1D
:100C1000821B930BFC01E25AFE4F10828A81282F1F
:100C200030E0C901880F991F880F991F880F991FFD
:100C3000821B930BFC01E15AFE4F8F8198859183B3
:100C4000808302C081E08983898128960FB6F89459
:100C5000DEBF0FBECDBFCF91DF910895DF93CF935D
:100C60000F92CDB7DEB789838981282F30E0C90183
:100C7000880F991F880F991F880F991F821B930B4C
:100C8000FC01E25AFE4F81E080830F90CF91DF910B
:100C90000895DF93CF930F92CDB7DEB78983898113
:100CA000282F30E0C901880F991F880F991F880FDE
:100CB000991F821B930BFC01E25AFE4F10820F908A
:100CC000CF91DF910895DF93CF930F92CDB7DEB729
:100CD00089838981282F30E0C901880F991F880FE7
:100CE000991F880F991F821B930BFC01E45AFE4F3A
:100CF000118210820F90CF91DF910895DF93CF93EF
:100D00000F92CDB7DEB7198298C08981282F30E0C5
:100D1000C901880F991F880F991F880F991F821B7F
:100D2000930BFC01E25AFE4F8081882309F082C0B8
:100D30008981282F30E0C901880F991F880F991FDA
:100D4000880F991F821B930BFC01E15AFE4F808193
:100D50009181009709F06EC08981282F30E0C90188
:100D6000880F991F880F991F880F991F821B930B5B
:100D7000FC01E45AFE4F808191810097C9F189817D
:100D8000282F30E0C901880F991F880F991F880FFD
:100D9000991F821B930BFC01E45AFE4F0190F081D6
:100DA000E02D09958981482F50E08981282F30E076
:100DB000C901880F991F880F991F880F991F821BDF
:100DC000930BFC01E65AFE4F808191819C012150DA
:100DD0003040CA01880F991F880F991F880F991FEB
:100DE000841B950BFC01E15AFE4F3183208322C006
:100DF0008981282F30E0C901880F991F880F991F1A
:100E0000880F991F821B930BFC01E15AFE4F8081D2
:100E10009181AC0141505040C901880F991F880F42
:100E2000991F880F991F821B930BFC01E15AFE4FFB
:100E30005183408389818F5F89838981833008F45E
:100E400064CF0F90CF91DF910895DF93CF93CDB70B
:100E5000DEB7A3E5B0E0E3E5F0E080818E7F8C9320
:100E6000A3E5B0E0E3E5F0E0808182608C93A3E548
:100E7000B0E0E3E5F0E080818B7F8C93A3E5B0E008
:100E8000E3E5F0E080818F7B8C93A3E5B0E0E3E5C0
:100E9000F0E0808188608C93A9E5B0E0E9E5F0E0BE
:100EA000808182608C93A9E5B0E0E9E5F0E0808183
:100EB0008E7F8C93CF91DF910895DF93CF9300D0F5
:100EC000CDB7DEB79A838983ECE5F0E0A981BA81DA
:100ED0008C9180830F900F90CF91DF910895DF93D5
:100EE000CF9300D00F92CDB7DEB79A8389838981E3
:100EF0009A81009749F089819A819093700180933B
:100F00006F0181E08B8301C01B828B810F900F905A
:100F10000F90CF91DF9108951F920F920FB60F920D
:100F200011242F933F934F935F936F937F938F93EE
:100F30009F93AF93BF93EF93FF93DF93CF93CDB77F
:100F4000DEB78091710190917201019690937201C8
:100F50008093710180917101909172012FE0803A2C
:100F6000920749F4E0916F01F09170010995109298
:100F7000720110927101CF91DF91FF91EF91BF91BA
:100F8000AF919F918F917F916F915F914F913F9121
:100F90002F910F900FBE0F901F901895DF93CF9356
:100FA000CDB7DEB7AFE5B0E0EFE5F0E08081806877
:100FB0008C93CF91DF910895DF93CF93CDB7DEB7B8
:100FC000A1E4B0E0E1E4F0E0808188608C93CF910F
:100FD000DF910895DF93CF93CDB7DEB7E1E4F0E082
:100FE00088E18083E1E4F0E01082CF91DF91089501
:100FF000DF93CF9300D0CDB7DEB789838981883066
:1010000088F4A1E4B0E0E1E4F0E08081887F8C9393
:10101000A1E4B0E0E1E4F0E090818981892B8C9338
:101020001A8202C081E08A838A810F900F90CF914B
:10103000DF910895DF93CF93CDB7DEB7A5E4B0E09D
:10104000E5E4F0E080818F778C93A5E4B0E0E5E4FF
:10105000F0E0808180648C93A5E4B0E0E5E4F0E00A
:10106000808188608C93A5E4B0E0E5E4F0E08081C5
:1010700080618C93A5E4B0E0E5E4F0E080818062DB
:101080008C93A5E4B0E0E5E4F0E0808181608C938E
:10109000A5E4B0E0E5E4F0E080818D7F8C93A5E4E9
:1010A000B0E0E5E4F0E080818B7F8C93A9E5B0E0CF
:1010B000E9E5F0E0808180688C93A9E5B0E0E9E59E
:1010C000F0E080818F7B8C93CF91DF910895DF9347
:1010D000CF930F92CDB7DEB78983E3E4F0E0898147
:1010E00080830F90CF91DF9108951F920F920FB6DA
:1010F0000F921124DF93CF93CDB7DEB7CF91DF915D
:101100000F900FBE0F901F901895DF93CF93CDB720
:10111000DEB70E94CD0FABE5B0E0EBE5F0E08081FB
:1011200080628C93A4E5B0E0E4E5F0E08081806427
:101130008C93CF91DF910895DF93CF9300D00F92DE
:10114000CDB7DEB79A83898389819A81009749F068
:1011500080917301909174019A83898381E08B83DC
:1011600002C082E08B838B810F900F900F90CF9104
:10117000DF9108951F920F920FB60F9211242F93B3
:101180003F934F935F936F937F938F939F93AF930F
:10119000BF93EF93FF93DF93CF93CDB7DEB78091EB
:1011A000730190917401009729F0E0917301F0911F
:1011B00074010995CF91DF91FF91EF91BF91AF91AC
:1011C0009F918F917F916F915F914F913F912F915F
:1011D0000F900FBE0F901F901895DF93CF93CDB750
:1011E000DEB70E94CD0FABE5B0E0EBE5F0E080812B
:1011F00080688C93A5E5B0E0E5E5F0E080818B7F29
:101200008C93A5E5B0E0E5E5F0E08081877F8C93E5
:10121000A5E5B0E0E5E5F0E0808184608C93A5E58C
:10122000B0E0E5E5F0E08081877F8C93A5E5B0E054
:10123000E5E5F0E080818B7F8C93A5E5B0E0E5E506
:10124000F0E0808188608C93A5E5B0E0E5E5F0E012
:10125000808184608C93A5E5B0E0E5E5F0E08081D5
:1012600088608C93CF91DF910895DF93CF9300D066
:101270000F92CDB7DEB79A83898389819A810097CF
:1012800049F080917501909176019A83898381E07C
:101290008B8302C082E08B838B810F900F900F9025
:1012A000CF91DF9108951F920F920FB60F921124E4
:1012B0002F933F934F935F936F937F938F939F935E
:1012C000AF93BF93EF93FF93DF93CF93CDB7DEB789
:1012D0008091750190917601009729F0E091750158
:1012E000F09176010995CF91DF91FF91EF91BF9138
:1012F000AF919F918F917F916F915F914F913F91AE
:101300002F910F900FBE0F901F901895DF93CF93E2
:10131000CDB7DEB784E462E040E00E94F70984E4E0
:1013200062E041E00E940C0BABE5B0E0EBE5F0E0E1
:10133000808180648C93A5E5B0E0E5E5F0E08081F4
:101340008E7F8C93A5E5B0E0E5E5F0E080818260DA
:101350008C93CF91DF910895DF93CF9300D00F92BC
:10136000CDB7DEB79A83898389819A81009749F046
:1013700089819A81909378018093770181E08B83B2
:1013800002C082E08B838B810F900F900F90CF91E2
:10139000DF9108951F920F920FB60F9211242F9391
:1013A0003F934F935F936F937F938F939F93AF93ED
:1013B000BF93EF93FF93DF93CF93CDB7DEB7E09169
:1013C0007701F09178010995CF91DF91FF91EF912D
:1013D000BF91AF919F918F917F916F915F914F914D
:1013E0003F912F910F900FBE0F901F901895DF9394
:1013F000CF93CDB7DEB728970FB6F894DEBF0FBEF8
:10140000CDBF89836A834B838A81883008F0F8C016
:101410008B81813009F073C08981282F30E03887B3
:101420002F838F8198858234910551F12F813885E2
:101430002334310534F48F8198858134910561F02E
:101440005BC02F8138852334310571F18F819885F8
:1014500084349105E9F150C0AAE3B0E0EAE3F0E09A
:101460008081482F8A81282F30E081E090E0022E91
:1014700002C0880F991F0A94E2F7842B8C93BEC098
:10148000A7E3B0E0E7E3F0E08081482F8A81282FCE
:1014900030E081E090E0022E02C0880F991F0A948C
:1014A000E2F7842B8C93AAC0A4E3B0E0E4E3F0E07D
:1014B0008081482F8A81282F30E081E090E0022E41
:1014C00002C0880F991F0A94E2F7842B8C9396C070
:1014D000A1E3B0E0E1E3F0E08081482F8A81282F8A
:1014E00030E081E090E0022E02C0880F991F0A943C
:1014F000E2F7842B8C9382C091E09E8383C08B8122
:10150000882309F078C08981282F30E03D832C831F
:101510008C819D818234910561F12C813D81233440
:10152000310534F48C819D818134910569F060C06E
:101530002C813D812334310589F18C819D81843456
:10154000910509F440C054C0AAE3B0E0EAE3F0E03A
:101550008081482F8A81282F30E081E090E0022EA0
:1015600002C0880F991F0A94E2F7809584238C9318
:1015700045C0A7E3B0E0E7E3F0E08081482F8A812F
:10158000282F30E081E090E0022E02C0880F991FE2
:101590000A94E2F7809584238C9330C0A4E3B0E0F2
:1015A000E4E3F0E08081482F8A81282F30E081E059
:1015B00090E0022E02C0880F991F0A94E2F78095EE
:1015C00084238C931BC0A1E3B0E0E1E3F0E08081D1
:1015D000482F8A81282F30E081E090E0022E02C05F
:1015E000880F991F0A94E2F7809584238C9306C094
:1015F00091E09E8307C023E02E8304C01E8202C0B8
:1016000032E03E838E8128960FB6F894DEBF0FBE7F
:10161000CDBFCF91DF910895DF93CF93CDB7DEB7E4
:1016200028970FB6F894DEBF0FBECDBF89836A83BB
:101630004B838A81883008F0F8C08B81813009F0B3
:1016400073C08981282F30E038872F838F81988558
:101650008234910551F12F8138852334310534F4DA
:101660008F8198858134910561F05BC02F81388529
:101670002334310571F18F81988584349105E9F126
:1016800050C0ABE3B0E0EBE3F0E08081482F8A810B
:10169000282F30E081E090E0022E02C0880F991FD1
:1016A0000A94E2F7842B8C93BEC0A8E3B0E0E8E391
:1016B000F0E08081482F8A81282F30E081E090E09F
:1016C000022E02C0880F991F0A94E2F7842B8C9394
:1016D000AAC0A5E3B0E0E5E3F0E08081482F8A816D
:1016E000282F30E081E090E0022E02C0880F991F81
:1016F0000A94E2F7842B8C9396C0A2E3B0E0E2E375
:10170000F0E08081482F8A81282F30E081E090E04E
:10171000022E02C0880F991F0A94E2F7842B8C9343
:1017200082C091E09E8383C08B81882309F078C0BA
:101730008981282F30E03D832C838C819D818234E8
:10174000910561F12C813D812334310534F48C8184
:101750009D818134910569F060C02C813D812334E5
:10176000310589F18C819D818434910509F440C053
:1017700054C0ABE3B0E0EBE3F0E08081482F8A8116
:10178000282F30E081E090E0022E02C0880F991FE0
:101790000A94E2F7809584238C9345C0A8E3B0E0D7
:1017A000E8E3F0E08081482F8A81282F30E081E053
:1017B00090E0022E02C0880F991F0A94E2F78095EC
:1017C00084238C9330C0A5E3B0E0E5E3F0E08081B2
:1017D000482F8A81282F30E081E090E0022E02C05D
:1017E000880F991F0A94E2F7809584238C931BC07D
:1017F000A2E3B0E0E2E3F0E08081482F8A81282F65
:1018000030E081E090E0022E02C0880F991F0A9418
:10181000E2F7809584238C9306C091E09E8307C0F5
:1018200024E02E8304C01E8202C032E03E838E81FB
:1018300028960FB6F894DEBF0FBECDBFCF91DF91D3
:101840000895DF93CF93CDB7DEB727970FB6F894FF
:10185000DEBF0FBECDBF89836A835C834B838A81E1
:10186000883008F076C08981282F30E03F832E83AE
:101870004E815F814234510559F18E819F818334BD
:10188000910534F42E813F812134310569F05CC02B
:101890004E815F814334510579F18E819F8184347B
:1018A000910509F43DC050C0E9E3F0E08081282FA4
:1018B00030E08A81882F90E0A90102C055954795B4
:1018C0008A95E2F7CA018170EB81FC8180833FC079
:1018D000E6E3F0E08081282F30E08A81882F90E0D5
:1018E000A90102C0559547958A95E2F7CA01817012
:1018F000EB81FC8180832BC0E3E3F0E08081282F23
:1019000030E08A81882F90E0A90102C05595479563
:101910008A95E2F7CA018170EB81FC81808317C050
:10192000E0E3F0E08081282F30E08A81882F90E08A
:10193000A90102C0559547958A95E2F7CA018170C1
:10194000EB81FC81808303C051E05D8304C01D8274
:1019500002C082E08D838D8127960FB6F894DEBF9A
:101960000FBECDBFCF91DF910895DF93CF9300D00D
:1019700000D00F92CDB7DEB789836A838981282F83
:1019800030E03D832C838C819D8182349105D9F098
:101990002C813D812334310534F48C819D81813447
:1019A000910561F01FC02C813D812334310581F008
:1019B0008C819D818434910581F014C0EAE3F0E0CC
:1019C0008A81808312C0E7E3F0E08A8180830DC0C2
:1019D000E4E3F0E08A81808308C0E1E3F0E08A81FB
:1019E000808303C091E09B8301C01B828B810F9099
:1019F0000F900F900F900F90CF91DF910895DF938C
:101A0000CF9300D000D00F92CDB7DEB789836A8321
:101A10008981282F30E03D832C838C819D81823405
:101A20009105D9F02C813D812334310534F48C812A
:101A30009D818134910561F01FC02C813D8123344B
:101A4000310581F08C819D818434910581F014C031
:101A5000EBE3F0E08A81808312C0E8E3F0E08A8162
:101A600080830DC0E5E3F0E08A81808308C0E2E373
:101A7000F0E08A81808303C091E09B8301C01B82D8
:101A80008B810F900F900F900F900F90CF91DF915F
:101A90000895DF93CF9300D000D000D0CDB7DEB74C
:101AA00089837B836A838A819B81009709F441C083
:101AB0008981282F30E03E832D838D819E81823461
:101AC0009105E9F02D813E812334310534F48D8177
:101AD0009E818134910561F027C02D813E812334A0
:101AE0003105A1F08D819E8184349105B1F01CC037
:101AF000E9E3F0E08081EA81FB81808318C0E6E3BE
:101B0000F0E08081EA81FB81808311C0E3E3F0E0B3
:101B10008081EA81FB8180830AC0E0E3F0E080817C
:101B2000EA81FB81808303C091E09C8304C01C8216
:101B300002C025E02C838C8126960FB6F894DEBF78
:101B40000FBECDBFCF91DF910895DF93CF930F925A
:101B5000CDB7DEB7E9E2F0E083E380838981806876
:101B60008983AAE2B0E0EAE2F0E080818F778C938B
:101B7000AAE2B0E0EAE2F0E080818F7B8C93898179
:101B80008F7B898389818F7E898389818F7D8983FA
:101B90008981877F89838981826089838981846043
:101BA000898389818B7F8983E0E4F0E08981808368
:101BB000AAE2B0E0EAE2F0E0808188608C93AAE2D9
:101BC000B0E0EAE2F0E0808180618C930F90CF91E9
:101BD000DF910895DF93CF9300D0CDB7DEB79A831E
:101BE0008983EBE2F0E08081829586958770882F6B
:101BF00090E0817090700097A1F3ECE2F0E08981B1
:101C000080830F900F90CF91DF910895DF93CF9352
:101C1000CDB7DEB7EBE2F0E080818823DCF7ECE2C1
:101C2000F0E08081CF91DF910895DF93CF93CDB71E
:101C3000DEB7ADE2B0E0EDE2F0E0808180618C9350
:101C4000ADE2B0E0EDE2F0E08081877F8C93ADE221
:101C5000B0E0EDE2F0E080818B7F8C93ADE2B0E00C
:101C6000EDE2F0E0808181608C93ADE2B0E0EDE2E6
:101C7000F0E080818D7F8C93AEE2B0E0EEE2F0E0A8
:101C800080818E7F8C93ADE2B0E0EDE2F0E0808168
:101C900080648C93ADE2B0E0EDE2F0E080818F7D76
:101CA0008C93CF91DF910895DF93CF93CDB7DEB7BB
:101CB000ADE2B0E0EDE2F0E080818F7E8C93ADE2AA
:101CC000B0E0EDE2F0E0808180648C93ADE2B0E0C2
:101CD000EDE2F0E080818F7D8C93CF91DF910895CC
:101CE000DF93CF930F92CDB7DEB78983EFE2F0E0B9
:101CF00089818083EEE2F0E080818823DCF7EFE2E7
:101D0000F0E080810F90CF91DF910895DF93CF9322
:101D1000CDB7DEB7A7E2B0E0E7E2F0E080818F7BED
:101D20008C93A7E2B0E0E7E2F0E080818F778C93BC
:101D3000A7E2B0E0E7E2F0E0808180628C93A6E267
:101D4000B0E0E6E2F0E08081887F8C93A6E2B0E02C
:101D5000E6E2F0E0808182608C93A6E2B0E0E6E209
:101D6000F0E0808180688C9380E0CF91DF910895CE
:101D7000DF93CF93CDB7DEB728970FB6F894DEBFC9
:101D80000FBECDBF8E8378876F838091190181301C
:101D900009F05DC010921901A7E2B0E0E7E2F0E0BF
:101DA0008081807E8C93A7E2B0E0E7E2F0E0908152
:101DB0008E81892B8C93A6E2B0E0E6E2F0E0808190
:101DC00080648C930BC089819A81AB81BC81019620
:101DD000A11DB11D89839A83AB83BC83E6E2F0E049
:101DE000808182958F70882F90E08170907000972D
:101DF00061F489819A81AB81BC81883823E19207A3
:101E000020E0A20720E0B207F1F689819A81AB8138
:101E1000BC81883823E1920720E0A20720E0B207C6
:101E200019F485E08D8315C0A6E2B0E0E6E2F0E0AB
:101E3000808180618C93E5E2F0E08081882F90E0E2
:101E4000EF81F8859183808381E08D8302C083E0F8
:101E50008D8381E0809319018D8128960FB6F894C7
:101E6000DEBF0FBECDBFCF91DF910895DF93CF933B
:101E700000D000D000D0CDB7DEB78A837C836B83DF
:101E80005E834D83809119018130C9F58B819C81DE
:101E9000009721F08D819E81009719F486E0898357
:101EA00030C0109219018B819C8190937A018093AC
:101EB00079018D819E8190937C0180937B01A7E2C3
:101EC000B0E0E7E2F0E08081807E8C93A7E2B0E0B2
:101ED000E7E2F0E090818A81892B8C93A6E2B0E062
:101EE000E6E2F0E0808180648C93A6E2B0E0E6E276
:101EF000F0E0808188608C9382E0898302C084E076
:101F00008983898126960FB6F894DEBF0FBECDBFB8
:101F1000CF91DF9108951F920F920FB60F92112467
:101F20002F933F934F935F936F937F938F939F93E1
:101F3000AF93BF93EF93FF93DF93CF93CDB7DEB70C
:101F4000A0917901B0917A01E5E2F0E08081882FDB
:101F500090E08D939C93E0917B01F0917C01099539
:101F6000A6E2B0E0E6E2F0E08081877F8C9381E03A
:101F700080931901CF91DF91FF91EF91BF91AF91C4
:101F80009F918F917F916F915F914F913F912F9191
:101F90000F900FBE0F901F901895DF93CF93CDB782
:101FA000DEB7AFE5B0E0EFE5F0E0808180688C93CC
:101FB000CF91DF910895DF93CF93CDB7DEB7279709
:101FC0000FB6F894DEBF0FBECDBF9C838B837E839C
:101FD0006D83EB81FC8182818823C9F5EB81FC81D3
:101FE0008081EB81FC819181692F40E00E94F7099B
:101FF0008A838A81813031F08A81833019F08A8125
:10200000823011F41F8277C0EB81FC818081EB81EB
:10201000FC819181692F41E00E940C0BEB81FC81D6
:102020008081EB81FC8191812D813E81692FA90105
:102030000E94210C89838981823019F08981813045
:1020400019F481E08F8357C083E08F8354C0EB8104
:10205000FC818281813021F5EB81FC818081EB81E3
:10206000FC819181692F40E00E94F7098A83EB810E
:10207000FC818081EB81FC8191812D813E81692FE2
:10208000A9010E94210C89838981823019F08981FC
:10209000813019F481E08F832EC083E08F832BC0C1
:1020A000EB81FC818281823021F5EB81FC81808192
:1020B000EB81FC819181692F40E00E94F7098A83BE
:1020C000EB81FC818081EB81FC8191812D813E81BE
:1020D000692FA9010E94210C89838981823019F01E
:1020E0008981813019F481E08F8305C083E08F837B
:1020F00002C082E08F838F8127960FB6F894DEBFEF
:102100000FBECDBFCF91DF910895DF93CF9300D065
:1021100000D000D0CDB7DEB78B837D836C83EC819C
:10212000FD81818161E00E94B50C8A838A818130C2
:1021300019F08A81833019F481E08E838CC0EC81A0
:10214000FD818081882309F03FC0EC81FD8182817F
:10215000EC81FD819381692F41E00E94F7098A8318
:102160008A81813031F08A81833019F08A8182300E
:1021700019F481E08E836FC0EC81FD818281EC8156
:10218000FD819381692F41E00E940C0B8983898135
:10219000813031F08981843019F08981823011F4E5
:1021A0001E8259C0EC81FD8121818B81882F90E0B6
:1021B000FC01E65EFE4F9081822F692F0E94FF0C8A
:1021C000898382E08E8347C0EC81FD8180818130EC
:1021D00009F03FC0EC81FD818281EC81FD8193811A
:1021E000692F41E00E94F7098A838A81813031F0AA
:1021F0008A81833019F08A81823019F481E08E83DC
:102200002AC0EC81FD818281EC81FD819381692F5F
:1022100040E00E940C0B89838981813031F08981F3
:10222000843019F08981823011F41E8214C0EC814F
:10223000FD8121818B81882F90E0FC01EC5DFE4FB8
:102240009081822F692F0E94FF0C898382E08E8308
:1022500002C082E08E838E8126960FB6F894DEBF90
:102260000FBECDBFCF91DF910895DF93CF93CDB750
:10227000DEB7EF970FB6F894DEBF0FBECDBF9CAFB1
:102280008BAF6DAF4EAFEBADFCAD818161E00E94D5
:10229000B50C8AAD813019F08AAD833019F481E034
:1022A0008FAF57C2EBADFCAD8081882309F025C10B
:1022B000EBADFCAD8281EBADFCAD9381692F41E0CC
:1022C0000E94F7098AAF8AAD813031F08AAD833040
:1022D00019F08AAD823019F481E08FAF3AC2EBADCC
:1022E000FCAD8281EBADFCAD9381692F41E00E9492
:1022F0000C0B89AFEBADFCAD21818DAD882F90E04B
:10230000FC01E65EFE4F9081822F692F0E94FF0C38
:1023100089AF80E090E0AAEFB3E48DAB9EABAFABAA
:10232000B8AF6DA97EA98FA998AD20E030E04AEF43
:1023300054E40E941F02DC01CB0189AB9AABABAB2A
:10234000BCAB69A97AA98BA99CA920E030E040E840
:102350005FE30E94790388232CF481E090E098AB3E
:102360008FA73FC069A97AA98BA99CA920E03FEF5C
:102370004FE757E40E94190318164CF56DA97EA982
:102380008FA998AD20E030E040E251E40E941F02A6
:10239000DC01CB01BC01CD010E944900DC01CB0175
:1023A00098AB8FA70FC088EC90E09EA78DA78DA556
:1023B0009EA50197F1F79EA78DA78FA598A90197D4
:1023C00098AB8FA78FA598A9009769F714C069A942
:1023D0007AA98BA99CA90E944900DC01CB0198AB8A
:1023E0008FA78FA598A99CA78BA78BA59CA50197C4
:1023F000F1F79CA78BA7EBADFCAD21818EAD882FAB
:1024000090E0FC01E65EFE4F9081822F692F0E94D2
:10241000FF0C89AF80E090E0AAEFB3E48FA398A708
:10242000A9A7BAA76FA178A589A59AA520E030E051
:102430004AEF54E40E941F02DC01CB018BA39CA352
:10244000ADA3BEA36BA17CA18DA19EA120E030E035
:1024500040E85FE30E94790388232CF481E090E058
:102460009AA389A33FC06BA17CA18DA19EA120E06E
:102470003FEF4FE757E40E94190318164CF56FA180
:1024800078A589A59AA520E030E040E251E40E94B9
:102490001F02DC01CB01BC01CD010E944900DC011F
:1024A000CB019AA389A30FC088EC90E098A38F8FEB
:1024B0008F8D98A10197F1F798A38F8F89A19AA189
:1024C00001979AA389A389A19AA1009769F73FC1AF
:1024D0006BA17CA18DA19EA10E944900DC01CB01D2
:1024E0009AA389A389A19AA19E8F8D8F8D8D9E8D90
:1024F0000197F1F79E8F8D8F2AC1EBADFCAD8081E6
:10250000813009F024C1EBADFCAD8281EBADFCADB7
:102510009381692F41E00E94F7098AAF8AAD81302B
:1025200031F08AAD833019F08AAD823019F481E040
:102530008FAF0FC1EBADFCAD8281EBADFCAD9381F4
:10254000692F40E00E940C0B89AFEBADFCAD2181FF
:102550008DAD882F90E0FC01EC5DFE4F9081822FC5
:10256000692F0E94FF0C89AF80E090E0AAEFB3E4EE
:10257000898F9A8FAB8FBC8F698D7A8D8B8D9C8D57
:1025800020E030E04AEF54E40E941F02DC01CB015E
:102590008D8B9E8BAF8BB88F6D897E898F89988D3F
:1025A00020E030E040E85FE30E94790388232CF4C8
:1025B00081E090E09C8B8B8B3FC06D897E898F89F9
:1025C000988D20E03FEF4FE757E40E94190318165B
:1025D0004CF5698D7A8D8B8D9C8D20E030E040E24A
:1025E00051E40E941F02DC01CB01BC01CD010E941D
:1025F0004900DC01CB019C8B8B8B0FC088EC90E0F9
:102600009A8B898B89899A890197F1F79A8B898BA3
:102610008B899C8901979C8B8B8B8B899C890097DC
:1026200069F714C06D897E898F89988D0E94490051
:10263000DC01CB019C8B8B8B8B899C89988B8F8742
:102640008F8598890197F1F7988B8F87EBADFCAD5B
:1026500021818EAD882F90E0FC01EC5DFE4F9081D2
:10266000822F692F0E94FF0C89AF80E090E0AAEFD3
:10267000B3E48B879C87AD87BE876B857C858D8512
:102680009E8520E030E04AEF54E40E941F02DC0106
:10269000CB018F839887A987BA876F8178858985D1
:1026A0009A8520E030E040E85FE30E9479038823C8
:1026B0002CF481E090E09E838D833FC06F8178850C
:1026C00089859A8520E03FEF4FE757E40E94190380
:1026D00018164CF56B857C858D859E8520E030E055
:1026E00040E251E40E941F02DC01CB01BC01CD019C
:1026F0000E944900DC01CB019E838D830FC088ECD2
:1027000090E09C838B838B819C810197F1F79C8364
:102710008B838D819E8101979E838D838D819E8188
:10272000009769F714C06F81788589859A850E9422
:102730004900DC01CB019E838D838D819E819A832C
:10274000898389819A810197F1F79A83898382E04D
:102750008FAF8FADEF960FB6F894DEBF0FBECDBF33
:10276000CF91DF910895DF93CF93CDB7DEB7A397D5
:102770000FB6F894DEBF0FBECDBF9AA389A3E9A11F
:10278000FAA1818161E00E94B50C88A388A1813003
:1027900019F088A1833019F481E08BA392C1E9A1DB
:1027A000FAA18081882309F0C2C0E9A1FAA182813F
:1027B000E9A1FAA19381692F41E00E94F70988A35A
:1027C00088A1813031F088A1833019F088A182304E
:1027D00019F481E08BA375C1E9A1FAA18281E9A175
:1027E000FAA19381692F41E00E940C0B8F8F8F8D8E
:1027F000813031F08F8D843019F08F8D823011F45B
:102800001BA25FC11E8E84C0E9A1FAA121818E8D19
:10281000882F90E0FC01E65EFE4F9081822F692FA9
:102820000E94FF0C8F8F80E090E0A6E1B3E4898FD7
:102830009A8FAB8FBC8F698D7A8D8B8D9C8D20E0AC
:1028400030E04AEF54E40E941F02DC01CB018D8B83
:102850009E8BAF8BB88F6D897E898F89988D20E094
:1028600030E040E85FE30E94790388232CF481E0A4
:1028700090E09C8B8B8B3FC06D897E898F89988D72
:1028800020E03FEF4FE757E40E94190318164CF57C
:10289000698D7A8D8B8D9C8D20E030E040E251E493
:1028A0000E941F02DC01CB01BC01CD010E94490046
:1028B000DC01CB019C8B8B8B0FC088EC90E09A8B5A
:1028C000898B89899A890197F1F79A8B898B8B89F2
:1028D0009C8901979C8B8B8B8B899C89009769F7CE
:1028E00014C06D897E898F89988D0E944900DC0112
:1028F000CB019C8B8B8B8B899C89988B8F878F8549
:1029000098890197F1F7988B8F878E8D8F5F8E8FC7
:102910008E8D8A3008F478CF8F8D813019F08F8DAD
:10292000843011F41BA2CDC082E08BA3CAC0E9A100
:10293000FAA18081813009F0C2C0E9A1FAA18281A7
:10294000E9A1FAA19381692F41E00E94F70988A3C8
:1029500088A1813031F088A1833019F088A18230BC
:1029600019F481E08BA3ADC0E9A1FAA18281E9A1AC
:10297000FAA19381692F40E00E940C0B8F8F8F8DFD
:10298000813031F08F8D843019F08F8D823011F4C9
:102990001BA297C01D8E84C0E9A1FAA121818D8D53
:1029A000882F90E0FC01EC5DFE4F9081822F692F13
:1029B0000E94FF0C8F8F80E090E0A6E1B3E48B874C
:1029C0009C87AD87BE876B857C858D859E8520E045
:1029D00030E04AEF54E40E941F02DC01CB018F83F8
:1029E0009887A987BA876F81788589859A8520E03D
:1029F00030E040E85FE30E94790388232CF481E013
:102A000090E09E838D833FC06F81788589859A850C
:102A100020E03FEF4FE757E40E94190318164CF5EA
:102A20006B857C858D859E8520E030E040E251E419
:102A30000E941F02DC01CB01BC01CD010E944900B4
:102A4000DC01CB019E838D830FC088EC90E09C83DA
:102A50008B838B819C810197F1F79C838B838D8184
:102A60009E8101979E838D838D819E81009769F75A
:102A700014C06F81788589859A850E944900DC01A0
:102A8000CB019E838D838D819E819A8389838981E9
:102A90009A810197F1F79A8389838D8D8F5F8D8F4E
:102AA0008D8D8A3008F478CF8F8D813019F08F8D1D
:102AB000843011F41BA205C082E08BA302C082E027
:102AC0008BA38BA1A3960FB6F894DEBF0FBECDBF2C
:102AD000CF91DF910895DF93CF9300D000D00F9274
:102AE000CDB7DEB79C838B83EB81FC818081EB814A
:102AF000FC819181692F41E00E94F7098A838A81D4
:102B0000813031F08A81833019F08A81823019F462
:102B100086E08D833EC0EB81FC8182818823C9F4ED
:102B2000EB81FC818081EB81FC819181692F41E007
:102B30000E940C0B89838981813031F08981843036
:102B400019F08981823019F481E08D8322C01D82C1
:102B500020C0EB81FC8182818130C9F4EB81FC8152
:102B60008081EB81FC819181692F40E00E940C0BF8
:102B700089838981813031F08981843019F089819C
:102B8000823019F481E08D8304C01D8202C084E08C
:102B90008D838D810F900F900F900F900F90CF919C
:102BA000DF910895DF93CF9300D000D0CDB7DEB78B
:102BB0009B838A83EA81FB8182818823D1F4EA8125
:102BC000FB818081EA81FB819181692F40E00E9435
:102BD0000C0B89838981813031F08981843019F02F
:102BE0008981823019F483E08C8324C082E08C8355
:102BF00021C0EA81FB8182818130D1F4EA81FB81AD
:102C00008081EA81FB819181692F41E00E940C0B58
:102C100089838981813031F08981843019F08981FB
:102C2000823019F483E08C8305C082E08C8302C07B
:102C300084E08C838C810F900F900F900F90CF9138
:102C4000DF910895DF93CF93CDB7DEB76F970FB6BF
:102C5000F894DEBF0FBECDBF8D8F7F8F6E8FEE8D50
:102C6000FF8D8081EE8DFF8D9181692F40E00E9464
:102C70000C0BEE8DFF8D8281EE8DFF8D9381692F80
:102C800040E00E940C0BEE8DFF8D86816D8D0E94C1
:102C9000FF0CEE8DFF8D8481EE8DFF8D9581692F68
:102CA00041E00E940C0B80E090E0A0E8BFE3898F38
:102CB0009A8FAB8FBC8F698D7A8D8B8D9C8D20E028
:102CC00030E04AEF54E40E941F02DC01CB018D8BFF
:102CD0009E8BAF8BB88F6D897E898F89988D20E010
:102CE00030E040E85FE30E94790388232CF481E020
:102CF00090E09C8B8B8B3FC06D897E898F89988DEE
:102D000020E03FEF4FE757E40E94190318164CF5F7
:102D1000698D7A8D8B8D9C8D20E030E040E251E40E
:102D20000E941F02DC01CB01BC01CD010E944900C1
:102D3000DC01CB019C8B8B8B0FC088EC90E09A8BD5
:102D4000898B89899A890197F1F79A8B898B8B896D
:102D50009C8901979C8B8B8B8B899C89009769F749
:102D600014C06D897E898F89988D0E944900DC018D
:102D7000CB019C8B8B8B8B899C89988B8F878F85C4
:102D800098890197F1F7988B8F87EE8DFF8D84815D
:102D9000EE8DFF8D9581692F40E00E940C0B80E045
:102DA00090E0A0E8BFE38B879C87AD87BE876B85EB
:102DB0007C858D859E8520E030E04AEF54E40E94BA
:102DC0001F02DC01CB018F839887A987BA876F81A7
:102DD000788589859A8520E030E040E85FE30E94AD
:102DE000790388232CF481E090E09E838D833FC09B
:102DF0006F81788589859A8520E03FEF4FE757E41A
:102E00000E94190318164CF56B857C858D859E856F
:102E100020E030E040E251E40E941F02DC01CB01DF
:102E2000BC01CD010E944900DC01CB019E838D8352
:102E30000FC088EC90E09C838B838B819C810197F1
:102E4000F1F79C838B838D819E8101979E838D8377
:102E50008D819E81009769F714C06F81788589857F
:102E60009A850E944900DC01CB019E838D838D8170
:102E70009E819A83898389819A810197F1F79A8348
:102E800089838D8D813039F42E8D3F8D80E060E017
:102E9000A9010E943E1E6F960FB6F894DEBF0FBECA
:102EA000CDBFCF91DF9108950F931F93DF93CF9301
:102EB000CDB7DEB7C955D0400FB6F894DEBF0FBE10
:102EC000CDBFFE01EB5AFF4F8083FE01EA5AFF4F50
:102ED00071836083FE01E85AFF4F51834083FE01F6
:102EE000E85AFF4F0190F081E02D8081882309F09E
:102EF00012C3FE01E85AFF4F0190F081E02D81815D
:102F0000813009F008C380917F01803108F0A3C1AE
:102F100080917D01FE01EA5AFF4F2081318160E0FE
:102F2000A9010E943E1EFE01EA5AFF4F0190F08166
:102F3000E02D8081FE01EA5AFF4F0190F081E02DE3
:102F40009181692F41E00E940C0BFE01EA5AFF4F6C
:102F50000190F081E02D8281FE01EA5AFF4F01903D
:102F6000F081E02D9381692F40E00E940C0BFE015F
:102F7000EA5AFF4F0190F081E02D8681FE01EB5A65
:102F8000FF4F60810E94FF0CFE01EA5AFF4F019043
:102F9000F081E02D8481FE01EA5AFF4F0190F0811B
:102FA000E02D9581692F41E00E940C0BFE01EF5A44
:102FB000FF4F80E090E0A0EAB0E480839183A28399
:102FC000B3838E01035B1F4FFE01EF5AFF4F6081F9
:102FD00071818281938120E030E04AEF54E40E94C5
:102FE0001F02DC01CB01F80180839183A283B383AC
:102FF000FE01E35BFF4F608171818281938120E05C
:1030000030E040E85FE30E947903882344F4FE0146
:10301000E55BFF4F81E090E09183808364C0FE0117
:10302000E35BFF4F608171818281938120E03FEFFC
:103030004FE757E40E94190318160CF043C0FE0135
:10304000EF5AFF4F608171818281938120E030E0EF
:1030500040E251E40E941F02DC01CB018E01055BBE
:103060001F4FBC01CD010E944900DC01CB01F801DA
:10307000918380831FC0FE01E75BFF4F88EC90E0E7
:1030800091838083FE01E75BFF4F808191810197EF
:10309000F1F7FE01E75BFF4F91838083DE01A55BC3
:1030A000BF4FFE01E55BFF4F808191810197119633
:1030B0009C938E93FE01E55BFF4F80819181009789
:1030C000D1F627C08E01055B1F4FFE01E35BFF4F6A
:1030D00060817181828193810E944900DC01CB0172
:1030E000F80191838083DE01A95BBF4FFE01E55BA0
:1030F000FF4F808191818D939C93FE01E95BFF4F8F
:10310000808191810197F1F7FE01E95BFF4F918387
:103110008083FE01EA5AFF4F0190F081E02D848107
:10312000FE01EA5AFF4F0190F081E02D9581692F51
:1031300040E00E940C0BFE01ED5BFF4F80E090E051
:10314000A0EAB0E480839183A283B3838E01015C03
:103150001F4FFE01ED5BFF4F608171818281938182
:1031600020E030E04AEF54E40E941F02DC01CB0172
:10317000F80180839183A283B383FE01FF9660816F
:1031800071818281938120E030E040E85FE30E941A
:10319000790388232CF481E090E09EAF8DAF46C088
:1031A000FE01FF96608171818281938120E03FEF73
:1031B0004FE757E40E941903181664F5FE01ED5B12
:1031C000FF4F608171818281938120E030E040E295
:1031D00051E40E941F02DC01CB01BC01CD010E9421
:1031E0004900DC01CB019EAF8DAF0FC088EC90E0B1
:1031F0009CAF8BAF8BAD9CAD0197F1F79CAF8BAFC4
:103200008DAD9EAD01979EAF8DAF8DAD9EAD0097FC
:1032100069F716C0FE01FF966081718182819381FA
:103220000E944900DC01CB019EAF8DAF8DAD9EADFC
:103230009AAF89AF89AD9AAD0197F1F79AAF89AF8F
:1032400080917F018F5F80937F0180917D018F5FEF
:1032500080937D01C8C280917F01803108F454C100
:1032600080917F01803208F04FC180917E01FE0184
:10327000EA5AFF4F2081318161E0A9010E943E1E80
:10328000FE01EA5AFF4F0190F081E02D8081FE019E
:10329000EA5AFF4F0190F081E02D9181692F41E0C2
:1032A0000E940C0BFE01EA5AFF4F0190F081E02DC5
:1032B0008281FE01EA5AFF4F0190F081E02D938157
:1032C000692F40E00E940C0BFE01EA5AFF4F01906B
:1032D000F081E02D8681FE01EB5AFF4F60810E9454
:1032E000FF0CFE01EA5AFF4F0190F081E02D84812E
:1032F000FE01EA5AFF4F0190F081E02D9581692F80
:1033000041E00E940C0B80E090E0A0E8BFE38DABB1
:103310009EABAFABB8AF6DA97EA98FA998AD20E0E9
:1033200030E04AEF54E40E941F02DC01CB0189AB7C
:103330009AABABABBCAB69A97AA98BA99CA920E0DD
:1033400030E040E85FE30E94790388232CF481E0B9
:1033500090E098AB8FA73FC069A97AA98BA99CA9D7
:1033600020E03FEF4FE757E40E94190318164CF591
:103370006DA97EA98FA998AD20E030E040E251E42C
:103380000E941F02DC01CB01BC01CD010E9449005B
:10339000DC01CB0198AB8FA70FC088EC90E09EA713
:1033A0008DA78DA59EA50197F1F79EA78DA78FA547
:1033B00098A9019798AB8FA78FA598A9009769F74F
:1033C00014C069A97AA98BA99CA90E944900DC01B3
:1033D000CB0198AB8FA78FA598A99CA78BA78BA58E
:1033E0009CA50197F1F79CA78BA7FE01EA5AFF4F16
:1033F0000190F081E02D8481FE01EA5AFF4F019097
:10340000F081E02D9581692F40E00E940C0B80E057
:1034100090E0A0E8BFE38FA398A7A9A7BAA76FA1E0
:1034200078A589A59AA520E030E04AEF54E40E94EF
:103430001F02DC01CB018BA39CA3ADA3BEA36BA198
:103440007CA18DA19EA120E030E040E85FE30E94D6
:10345000790388232CF481E090E09AA389A33FC0EC
:103460006BA17CA18DA19EA120E03FEF4FE757E427
:103470000E94190318164CF56FA178A589A59AA585
:1034800020E030E040E251E40E941F02DC01CB0169
:10349000BC01CD010E944900DC01CB019AA389A3A4
:1034A0000FC088EC90E098A38F8F8F8D98A1019723
:1034B000F1F798A38F8F89A19AA101979AA389A365
:1034C00089A19AA1009769F714C06BA17CA18DA175
:1034D0009EA10E944900DC01CB019AA389A389A186
:1034E0009AA19E8F8D8F8D8D9E8D0197F1F79E8F66
:1034F0008D8F80917F018F5F80937F0180917E010E
:103500008F5F80937E016FC110927F0110927D01C9
:1035100010927E0168C1FE01E85AFF4F0190F081D0
:10352000E02D8081813009F05EC1FE01E85AFF4F35
:103530000190F081E02D8181882309F054C18091B0
:103540007F01803108F04BC1FE01EB5AFF4F8081B3
:10355000882309F444C1FE01EA5AFF4F0190F0812B
:10356000E02D8081FE01EA5AFF4F0190F081E02DAD
:103570009181692F41E00E940C0BFE01EA5AFF4F36
:103580000190F081E02D8281FE01EA5AFF4F019007
:10359000F081E02D9381692F40E00E940C0BFE0129
:1035A000EA5AFF4F0190F081E02D8681FE01EB5A2F
:1035B000FF4F60810E94FF0CFE01EA5AFF4F01900D
:1035C000F081E02D8481FE01EA5AFF4F0190F081E5
:1035D000E02D9581692F41E00E940C0B80E090E086
:1035E000A0EAB0E4898F9A8FAB8FBC8F698D7A8DFA
:1035F0008B8D9C8D20E030E04AEF54E40E941F0246
:10360000DC01CB018D8B9E8BAF8BB88F6D897E8952
:103610008F89988D20E030E040E85FE30E947903D5
:1036200088232CF481E090E09C8B8B8B3FC06D89CC
:103630007E898F89988D20E03FEF4FE757E40E9405
:10364000190318164CF5698D7A8D8B8D9C8D20E0B1
:1036500030E040E251E40E941F02DC01CB01BC01DA
:10366000CD010E944900DC01CB019C8B8B8B0FC0EC
:1036700088EC90E09A8B898B89899A890197F1F778
:103680009A8B898B8B899C8901979C8B8B8B8B89DF
:103690009C89009769F714C06D897E898F89988D00
:1036A0000E944900DC01CB019C8B8B8B8B899C8910
:1036B000988B8F878F8598890197F1F7988B8F87E3
:1036C000FE01EA5AFF4F0190F081E02D8481FE0156
:1036D000EA5AFF4F0190F081E02D9581692F40E07B
:1036E0000E940C0B80E090E0A0EAB0E48B879C87FE
:1036F000AD87BE876B857C858D859E8520E030E01B
:103700004AEF54E40E941F02DC01CB018F839887AB
:10371000A987BA876F81788589859A8520E030E00E
:1037200040E85FE30E94790388232CF481E090E075
:103730009E838D833FC06F81788589859A8520E03F
:103740003FEF4FE757E40E94190318164CF56B85BD
:103750007C858D859E8520E030E040E251E40E942A
:103760001F02DC01CB01BC01CD010E944900DC013C
:10377000CB019E838D830FC088EC90E09C838B836C
:103780008B819C810197F1F79C838B838D819E8136
:1037900001979E838D838D819E81009769F714C068
:1037A0006F81788589859A850E944900DC01CB016B
:1037B0009E838D838D819E819A83898389819A815D
:1037C0000197F1F79A83898380917F018F5F8093BE
:1037D0007F0180917D018F5F80937D0104C01092F5
:1037E0007D0110927F0180E0C75ADF4F0FB6F89439
:1037F000DEBF0FBECDBFCF91DF911F910F91089516
:10380000DF93CF93CDB7DEB7EA970FB6F894DEBF5C
:103810000FBECDBF9AAF89AFE9ADFAAD8081E9ADFA
:10382000FAAD9181692F41E00E94F709E9ADFAAD47
:103830008281E9ADFAAD9381692F41E00E94F709D9
:10384000E9ADFAAD8481E9ADFAAD9581692F41E02A
:103850000E94F709E9ADFAAD86816FEF0E94B50CC1
:1038600080E090E0ACE5B2E48DAB9EABAFABB8AF1F
:103870006DA97EA98FA998AD20E030E04AEF54E40D
:103880000E941F02DC01CB0189AB9AABABABBCAB96
:1038900069A97AA98BA99CA920E030E040E85FE300
:1038A0000E94790388232CF481E090E098AB8FA7E5
:1038B0003FC069A97AA98BA99CA920E03FEF4FE7F7
:1038C00057E40E94190318164CF56DA97EA98FA91B
:1038D00098AD20E030E040E251E40E941F02DC019C
:1038E000CB01BC01CD010E944900DC01CB0198ABAA
:1038F0008FA70FC088EC90E09EA78DA78DA59EA5F1
:103900000197F1F79EA78DA78FA598A9019798AB6E
:103910008FA78FA598A9009769F714C069A97AA9FC
:103920008BA99CA90E944900DC01CB0198AB8FA711
:103930008FA598A99CA78BA78BA59CA50197F1F7AC
:103940009CA78BA729AD3AAD88E3B9010E94221646
:1039500080E090E0A0EAB0E48FA398A7A9A7BAA757
:103960006FA178A589A59AA520E030E04AEF54E43C
:103970000E941F02DC01CB018BA39CA3ADA3BEA3BD
:103980006BA17CA18DA19EA120E030E040E85FE327
:103990000E94790388232CF481E090E09AA389A304
:1039A0003FC06BA17CA18DA19EA120E03FEF4FE71E
:1039B00057E40E94190318164CF56FA178A589A544
:1039C0009AA520E030E040E251E40E941F02DC01B1
:1039D000CB01BC01CD010E944900DC01CB019AA3BF
:1039E00089A30FC088EC90E098A38F8F8F8D98A14A
:1039F0000197F1F798A38F8F89A19AA101979AA3B4
:103A000089A389A19AA1009769F714C06BA17CA131
:103A10008DA19EA10E944900DC01CB019AA389A33C
:103A200089A19AA19E8F8D8F8D8D9E8D0197F1F723
:103A30009E8F8D8F29AD3AAD8EE0B9010E9422167E
:103A400080E090E0A0EAB0E4898F9A8FAB8FBC8FC2
:103A5000698D7A8D8B8D9C8D20E030E04AEF54E4A7
:103A60000E941F02DC01CB018D8B9E8BAF8BB88F28
:103A70006D897E898F89988D20E030E040E85FE392
:103A80000E94790388232CF481E090E09C8B8B8B3F
:103A90003FC06D897E898F89988D20E03FEF4FE789
:103AA00057E40E94190318164CF5698D7A8D8B8D99
:103AB0009C8D20E030E040E251E40E941F02DC01D6
:103AC000CB01BC01CD010E944900DC01CB019C8BE4
:103AD0008B8B0FC088EC90E09A8B898B89899A89AF
:103AE0000197F1F79A8B898B8B899C8901979C8B25
:103AF0008B8B8B899C89009769F714C06D897E89AF
:103B00008F89988D0E944900DC01CB019C8B8B8BA7
:103B10008B899C89988B8F878F8598890197F1F77E
:103B2000988B8F8729AD3AAD81E0B9010E942216AA
:103B300080E090E0A0EAB0E48B879C87AD87BE87E9
:103B40006B857C858D859E8520E030E04AEF54E4CE
:103B50000E941F02DC01CB018F839887A987BA8757
:103B60006F81788589859A8520E030E040E85FE3C1
:103B70000E94790388232CF481E090E09E838D835A
:103B80003FC06F81788589859A8520E03FEF4FE7B8
:103B900057E40E94190318164CF56B857C858D85BA
:103BA0009E8520E030E040E251E40E941F02DC01EB
:103BB000CB01BC01CD010E944900DC01CB019E83F9
:103BC0008D830FC088EC90E09C838B838B819C81DC
:103BD0000197F1F79C838B838D819E8101979E8352
:103BE0008D838D819E81009769F714C06F817885E0
:103BF00089859A850E944900DC01CB019E838D83D3
:103C00008D819E819A83898389819A810197F1F7B9
:103C10009A838983EA960FB6F894DEBF0FBECDBFB4
:103C2000CF91DF910895DF93CF9300D000D000D0E3
:103C3000CDB7DEB79A8389837C836B835E834D83A4
:103C40000FC0E981FA8180812B813C814D815E81A9
:103C5000B9010E94541789819A8101969A838983B8
:103C6000E981FA818081882361F726960FB6F8945E
:103C7000DEBF0FBECDBFCF91DF910895DF93CF930D
:103C800000D000D00F92CDB7DEB78A836B835D83FF
:103C90004C8319828B81882319F48A81898303C01C
:103CA0008A81805C8983898180682C813D81B9010A
:103CB0000E9422160F900F900F900F900F90CF91AF
:103CC000DF910895DF93CF93CDB7DEB728970FB676
:103CD000F894DEBF0FBECDBF9B838A836C835E8367
:103CE0004D8338872F838C81882F90E00896880F2A
:103CF000991F880F991F880F991F2D813E81B90147
:103D00000E942216198213C08981282F30E08A81EF
:103D10009B81FC01E20FF31F80812D813E814F8149
:103D20005885B9010E94541789818F5F89838981E1
:103D3000883050F32D813E8181E061E0A9010E942D
:103D40003E1E2D813E814F8158858C81B9010E9494
:103D5000541728960FB6F894DEBF0FBECDBFCF9193
:103D6000DF910895DF93CF93CDB7DEB76C970FB691
:103D7000F894DEBF0FBECDBF6D8B7E8B8F8B988F7F
:103D80005A8F498F3C8F2B8F8AE0FE013B96DF01D3
:103D9000982F1D929A95E9F780E28B871F821886EB
:103DA00019861A8681E089838D899E89AF89B88DAD
:103DB0000097A105B10509F052C0298D3A8D4B8DB0
:103DC0005C8D80E3B9010E94541752C08D899E8991
:103DD000AF89B88D2AE030E040E050E0BC01CD0171
:103DE0000E947422DC01CB018A838A81282F30E073
:103DF00040E050E08D899E89AF89B88D821B930B7E
:103E0000A40BB50B8D8B9E8BAF8BB88F8F81988554
:103E1000A985BA859E01255F3F4FF901E80FF91F7B
:103E20008A8180838D899E89AF89B88D2AE030E0B0
:103E300040E050E0BC01CD010E947422DA01C901CA
:103E40008D8B9E8BAF8BB88F8F819885A985BA8516
:103E50000196A11DB11D8F839887A987BA878D8987
:103E60009E89AF89B88D0097A105B10509F0AECF45
:103E70008F819885A985BA850197A109B1098B839E
:103E80009C83AD83BE831FC08B819C81AD81BE812D
:103E90009E01255F3F4FF901E80FF91F8081805D8A
:103EA000298D3A8D4B8D5C8DB9010E945417898301
:103EB0008B819C81AD81BE810197A109B1098B8362
:103EC0009C83AD83BE838B819C81AD81BE81BB23EE
:103ED000DCF66C960FB6F894DEBF0FBECDBFCF9167
:103EE000DF910895DF93CF9300D000D0CDB7DEB738
:103EF0009A8389837C836B83E981FA818081E9815C
:103F0000FA819181692F41E00E94F709E981FA81E4
:103F10008281E981FA819381692F41E00E94F7094A
:103F2000E981FA818481E981FA819581692F41E0F3
:103F30000E94F709E981FA818681E981FA819781F6
:103F4000692F41E00E94F709EB81FC818081EB81C0
:103F5000FC819181692F40E00E94F709EB81FC818F
:103F60008281EB81FC819381692F40E00E94F709F7
:103F7000EB81FC818481EB81FC819581692F40E09C
:103F80000E94F709EB81FC818681EB81FC8197819E
:103F9000692F40E00E94F709E981FA818081E98177
:103FA000FA819181692F41E00E940C0BE981FA812D
:103FB0008281E981FA819381692F41E00E940C0B93
:103FC000E981FA818481E981FA819581692F41E053
:103FD0000E940C0BE981FA818681E981FA8197813F
:103FE000692F41E00E940C0BEB81FC818081EB8109
:103FF000FC819181692F41E00E940C0BEB81FC81D7
:104000008281EB81FC819381692F41E00E940C0B3E
:10401000EB81FC818481EB81FC819581692F41E0FA
:104020000E940C0BEB81FC818681EB81FC819781E6
:10403000692F41E00E940C0B0F900F900F900F9092
:10404000CF91DF910895DF93CF93CDB7DEB7699716
:104050000FB6F894DEBF0FBECDBF9C8B8B8B7E8BD3
:104060006D8B588F4F8B198AC5C081E4698940E0F8
:104070000E940C0B84E0888BB1C09E012E5E3F4FE6
:1040800081E46889A9010E94210C8F8780E090E07B
:10409000A0E2B1E48B879C87AD87BE876B857C856A
:1040A0008D859E8520E030E04AEF54E40E941F0297
:1040B000DC01CB018F839887A987BA876F817885C8
:1040C00089859A8520E030E040E85FE30E9479032B
:1040D00088232CF481E090E09E838D833FC06F8124
:1040E000788589859A8520E03FEF4FE757E40E9465
:1040F000190318164CF56B857C858D859E8520E00F
:1041000030E040E251E40E941F02DC01CB01BC011F
:10411000CD010E944900DC01CB019E838D830FC03D
:1041200088EC90E09C838B838B819C810197F1F7D5
:104130009C838B838D819E8101979E838D838D814E
:104140009E81009769F714C06F81788589859A856B
:104150000E944900DC01CB019E838D838D819E816D
:104160009A83898389819A810197F1F79A83898358
:104170008F85882381F58A89882369F581E4698997
:1041800041E00E940C0B8989482F50E08889882FD4
:1041900090E09C0124503040CA01880F991F880F7D
:1041A000991F820F931FFC01E25DFE4F8081EF8912
:1041B000F88D80830BC09E012E5E3F4F81E468899D
:1041C000A9010E94210C8A89813019F08A898823EB
:1041D00091F3198E15C088898F5F888B8889883004
:1041E00008F44BCF81E4698941E00E940C0B898976
:1041F0008F5F898B8989843008F437CF81E0898F7C
:10420000898D69960FB6F894DEBF0FBECDBFCF91F2
:10421000DF910895DF93CF9300D0CDB7DEB789E467
:1042200091E021E531E0B9010E94721F0E94CD0F9B
:1042300082E491E00E94001C0E941A0884E467E076
:1042400041E00E94F70980E00E94670889E491E05C
:1042500021E531E0AE014E5F5F4FB9010E9423209E
:1042600089838981882391F78A818033D1F480E022
:104270000E94670822E431E081E0B9010E94221621
:1042800080E690E022E431E04EE351E0B9010E9483
:10429000131E22E431E080E060E0A9010E943E1E8E
:1042A000D5CF8A818133D1F486EF0E94670822E45A
:1042B00031E081E0B9010E94221680E790E022E41B
:1042C00031E04EE351E0B9010E94131E22E431E0D7
:1042D00080E060E0A9010E943E1EB8CF8A8182334F
:1042E000D1F487EF0E94670822E431E081E0B90150
:1042F0000E94221680E890E022E431E04EE351E093
:10430000B9010E94131E22E431E080E060E0A901BF
:104310000E943E1E9BCF8A818333D1F488EF0E9496
:10432000670822E431E081E0B9010E94221680E9A9
:1043300090E022E431E04EE351E0B9010E94131E07
:1043400022E431E080E060E0A9010E943E1E7ECFC1
:104350008A818433D1F489EF0E94670822E431E036
:1043600081E0B9010E94221680EA90E022E431E067
:104370004EE351E0B9010E94131E22E431E080E0D7
:1043800060E0A9010E943E1E61CF8A818533D1F48D
:104390008AEF0E94670822E431E081E0B9010E94BF
:1043A000221680EB90E022E431E04EE351E0B901C7
:1043B0000E94131E22E431E080E060E0A9010E9427
:1043C0003E1E44CF8A818633D1F48BEF0E9467086A
:1043D00022E431E081E0B9010E94221680EC90E0F5
:1043E00022E431E04EE351E0B9010E94131E22E4C1
:1043F00031E080E060E0A9010E943E1E27CF8A8163
:104400008733D1F48CEF0E94670822E431E081E029
:10441000B9010E94221680ED90E022E431E04EE3E3
:1044200051E0B9010E94131E22E431E080E060E017
:10443000A9010E943E1E0ACF8A818833D1F48DEFF4
:104440000E94670822E431E081E0B9010E9422164F
:1044500080EE90E022E431E04EE351E0B9010E94A9
:10446000131E22E431E080E060E0A9010E943E1EBC
:10447000EDCE8A818933D1F48EEF0E94670822E461
:1044800031E081E0B9010E94221680EF90E022E441
:1044900031E04EE351E0B9010E94131E22E431E005
:1044A00080E060E0A9010E943E1ED0CE8A818B325E
:1044B00009F0CCCE8FEF0E94670822E431E081E062
:1044C000B9010E94221680E091E022E431E04EE33F
:1044D00051E0B9010E94131E22E431E080E060E067
:1044E000A9010E943E1EB2CEA1E21A2EAA1BBB1B3E
:1044F000FD010DC0AA1FBB1FEE1FFF1FA217B307B0
:10450000E407F50720F0A21BB30BE40BF50B661FC5
:10451000771F881F991F1A9469F760957095809589
:1045200090959B01AC01BD01CF0108952F923F9260
:104530004F925F926F927F928F929F92AF92BF92B3
:10454000CF92DF92EF92FF920F931F93CF93DF935F
:10455000CDB7DEB7CA1BDB0B0FB6F894DEBF0FBEBC
:10456000CDBF09942A88398848885F846E847D8409
:104570008C849B84AA84B984C884DF80EE80FD800B
:104580000C811B81AA81B981CE0FD11D0FB6F89481
:0E459000DEBF0FBECDBFED010895F894FFCF42
:10459E004D6F746F722053706565643D4F464600D3
:1045AE004D6F746F722053706565643D3130250018
:1045BE004D6F746F722053706565643D3230250007
:1045CE004D6F746F722053706565643D33302500F6
:1045DE004D6F746F722053706565643D34302500E5
:1045EE004D6F746F722053706565643D35302500D4
:1045FE004D6F746F722053706565643D36302500C3
:10460E004D6F746F722053706565643D37302500B1
:10461E004D6F746F722053706565643D38302500A0
:10462E004D6F746F722053706565643D393025008F
:10463E004D6F746F722053706565643D3130302557
:10464E0000000000000000000001C0F9A4B0999223
:10465E0082F880903F065B4F666D7D077F6F37381F
:10466E00392F3435362A3132332D43303D2B01006C
:10467E000001440444064405434100410141024106
:0A468E000341044105410641070005
:00000001FF
